:1000000023C0FECFFDCFFCCFFBCFFACFF9CFF8CF87
:10001000F7CFF6CFF5CFF4CFF3CFF2CFF1CFF0CFCC
:10002000EFCFEECFEDCF1027E80364000A00010008
:10003000001000011000010001002D4E414E000093
:100040000100800038000000F894EE27ECBBE5BF0B
:10005000F8E1A4B7A77FA4BFF1BDE1BD8DE0A2E0A8
:10006000ED938A95E9F780E8A0E6ED938A95E9F7A4
:10007000E0E4F0E085919591009761F0A591B5914C
:1000800005901590BF01F00105900D920197E1F7E1
:10009000FB01F0CFE0E0E3BBE4BBE5BBEFEDEDBF80
:1000A000C0E800C000E010E0E0E8E6BDE0E0E6BD4A
:1000B000E3E0EABBE1E1EBBBE0E0E7BBE8BBE1BBCF
:1000C000E2BBD898E8ECF0E0FA93EA9335D000E090
:1000D00010E0B09B02C001E010E0B19B02C002E062
:1000E00010E0B29B02C003E010E0B39B02C004E04A
:1000F00010E0B49B02C005E010E0B59B02C00AE02E
:1001000010E0B69B02C004E110E0B79B02C00EE114
:1001100010E0002E012A11F401E010E0D89AE8EC7A
:10012000F0E0FA93EA9308D0D898E0E9FAE1FA937C
:10013000EA9302D0F3CFFFCFE991F991309639F0ED
:1001400080ED97E00197F1F7A8953197C9F70895E9
:00000001FF
