:100000001EC0FECFFDCFFCCFFBCFFACFF9CFF8CF8C
:10001000F7CFF6CFF5CFF4CFF3CFF2CFF1CFF0CFCC
:10002000EFCFEECFEDCF18003000600000000000F1
:100030000000010001000A0002002C000000F894FA
:10004000EE27ECBBE5BFF8E1A4B7A77FA4BFF1BDE5
:10005000E1BD8DE0A2E0ED938A95E9F780E8A0E6A6
:10006000ED938A95E9F7E6E3F0E0859195910097A5
:1000700061F0A591B59105901590BF01F001059033
:100080000D920197E1F7FB01F0CFE0E0E3BBE4BBA9
:10009000E5BBEFEDEDBFC0E8C9C0DCD100E010E08A
:1000A000EA81FB810E171F075CF40F5F1F4FD89882
:1000B00080E18A95F1F7D89A83E38A95F1F7F0CF3A
:1000C00080EB94E00197F1F7C8D124960895E0E61B
:1000D000F0E0FA93EA93E1DFE0E3F0E0FA93EA93E9
:1000E000DCDFE8E1F0E0FA93EA93D7DFE0E3F0E069
:1000F000FA93EA93D2DFE0E3F0E0FA93EA93CDDFFC
:10010000E8E1F0E0FA93EA93C8DFE0E3F0E0FA9385
:10011000EA93C3DFE8E1F0E085C0E0E6F0E0FA93BF
:10012000EA93BBDFE0E3F0E0FA93EA93B6DFE0E3C3
:10013000F0E0FA93EA93B1DFE0E3F0E0FA93EA93B8
:10014000ACDFE8E1F0E0FA93EA93A7DFE0E3F0E068
:10015000FA93EA93A2DFE0E3F0E0FA93EA939DDFFB
:10016000E8E1F0E05FC0E0E6F0E0FA93EA9395DFC3
:10017000E8E1F0E0FA93EA9390DFE8E1F0E0FA9347
:10018000EA938BDFE8E1F0E0FA93EA9386DFE0E3BD
:10019000F0E0FA93EA9381DFE8E1F0E0FA93EA9382
:1001A0007CDFE8E1F0E039C0E8E1F0E0FA93EA93BF
:1001B00074DFE0E3F0E0FA93EA936FDFE8E1F0E068
:1001C000FA93EA936ADFE0E3F0E0FA93EA9365DFFB
:1001D000E0E3F0E0FA93EA9360DFE0E3F0E0FA9323
:1001E000EA935BDFE8E1F0E0FA93EA9356DFE8E1B7
:1001F000F0E0FA93EA9351DFE8E1F0E0FA93EA9352
:100200004CDFE0E3F0E0FA93EA9347DFE0E3F0E06D
:10021000FA93EA9342DFE0E3F0E0FA93EA933DDFFA
:10022000E0E3F0E0FA93EA9338DF0895E0E8E6BD12
:10023000E0E0E6BDE1E0EABBE3E0EBBBE0E0E7BB2A
:10024000EFEFE8BBE0E0E1BBEFEFE2BBE4E6F0E0BC
:10025000FA93EA93B4D0C99903C0E2E0F0E05F01F9
:10026000809903C0E8EEF3E02F01819903C0E0E636
:10027000FAEE2F01829903C0E0E8FEEE2F01839988
:1002800003C0E0E0FCE52F01B09903C0F101319615
:100290001F01B19903C0F10132961F01B29903C049
:1002A000F10133961F01B39903C0F10134961F0188
:1002B000B49903C0F10135961F01B59903C0F1014E
:1002C0003A961F01B69903C0F10174961F01B799C0
:1002D00003C0F1017E961F01F101D20190D0E456D6
:1002E000F0403F01082C092821F0E8ECF0E06E1AFC
:1002F0007F0A849906C0D201E4E0F0E098D06E0E47
:100300007F1E859906C0D201E2E0F0E090D02E0E6B
:100310003F1E869903C0E3E0F0E05F01F501E130A4
:10032000A0E0FA0789F4D3DE3FDFEBE0F0E0FA93D8
:10033000EA9345D0CCDE38DFE4E1F0E060E070E045
:10034000FA93EA933CD027C0E230A0E0FA0789F4A0
:10035000E4DE2ADFEBE0F0E0FA93EA9330D0DDDE72
:1003600023DFE3E1F0E060E070E0FA93EA9327D066
:1003700012C0E330A0E0FA0771F4F5DE15DFEBE020
:10038000F0E0FA93EA931BD0EEDE0EDFE7E1F0E057
:10039000FA93EA9314D0082C092839F0D898E8EC9D
:1003A000F0E0FA93EA930BD0D89A062C072821F0B4
:1003B0007A926A9204D001C001C0B0CFFFCFE99118
:1003C000F991309639F080ED97E00197F1F7A89513
:1003D0003197C9F70895F195E195F04008950A2EF7
:1003E0001B2E81E1AA27BB1B05C010F4A00DB11D77
:1003F000B695A795F795E7958A95B9F708951CD016
:10040000EEDF0EF4E8DF08950024112490E1AA0F36
:10041000BB1F001C111C0E1A1F0A18F40E0E1F1E03
:1004200001C0A1609A9599F7FD01D001089504D00B
:10043000EBDF0EF4D0DF0895E894F7FF02C0CBDFC6
:100440006894B7FF06C0A095B095119600F8039484
:1004500000FA08951A930A9308951981088108955E
:00000001FF
