:0E00000025C0FECFFDCFFCCFFBCFFACFF9CF4E
:10000E00F8CFF7CFF6CFF5CFF4CFF3CFF2CFF1CFC6
:10001E00F0CFEFCFEECFEDCF1027E80364000A004C
:10002E000100001000011000010018003000010056
:10003E002D4E414E0000010080003C000000F8945F
:10004E00EE27ECBBE5BFF8E1A4B7A77FA4BFF1BDD7
:10005E00E1BD8DE0A2E0ED938A95E9F780E8A0E698
:10006E00ED938A95E9F7E4E4F0E085919591009798
:10007E0061F0A591B59105901590BF01F001059025
:10008E000D920197E1F7FB01F0CFE0E0E3BBE4BB9B
:10009E00E5BBEFEDEDBFC0E887C0BCD000E010E0DF
:1000AE00EA81FB810E171F07ACF40F5F1F4FEFEFB6
:1000BE00E8BB959A949A939A929A8BE18A95F1F766
:1000CE00E0E0E8BB959894989398929888E28A9588
:1000DE00F1F7E6CF80EB94E00197F1F79ED02496EE
:1000EE000895E0E3F0E0FA93EA93D7DFE8E1F0E079
:1000FE00FA93EA93D2DFE0E3F0E0FA93EA93CDDFEE
:10010E00E0E3F0E0FA93EA93C8DFE8E1F0E0FA9377
:10011E00EA93C3DFE0E3F0E0FA93EA93BEDFE8E1AF
:10012E00F0E03EC0E8E1F0E0FA93EA93B6DFE0E3F8
:10013E00F0E0FA93EA93B1DFE8E1F0E0FA93EA93A4
:10014E00ACDFE0E3F0E0FA93EA93A7DFE0E3F0E060
:10015E00FA93EA93A2DFE0E3F0E0FA93EA939DDFED
:10016E00E8E1F0E0FA93EA9398DFE8E1F0E0FA9341
:10017E00EA9393DFE8E1F0E0FA93EA938EDFE0E3AF
:10018E00F0E0FA93EA9389DFE0E3F0E0FA93EA9382
:10019E0084DFE0E3F0E0FA93EA937FDFE0E3F0E060
:1001AE00FA93EA937ADF0895E0E8E6BDE0E0E6BD73
:1001BE00E3E0EABBE1E1EBBBE0E0E7BBE8BBE1BBC0
:1001CE00E2BBD898E8ECF0E0FA93EA9317D0D8980F
:1001DE0088DFA8DFEBE0F0E0FA93EA930FD081DF3F
:1001EE00A1DFE8ECF0E0FA93EA9308D0D89AE0E2C7
:1001FE00F3E0FA93EA9302D0EACFFFCFE991F991B7
:10020E00309639F080ED97E00197F1F7A895319788
:10021E00C9F708951A930A930895198108810895CC
:00000001FF
