:0C0000001EC0FECFFDCFFCCFFBCFFACF1F
:10000C00F9CFF8CFF7CFF6CFF5CFF4CFF3CFF2CFC0
:10001C00F1CFF0CFEFCFEECFEDCF18003000600076
:10002C00000000000000010001000A0002002C008A
:10003C000000F894EE27ECBBE5BFF8E1A4B7A77F6E
:10004C00A4BFF1BDE1BD8DE0A2E0ED938A95E9F787
:10005C0080E8A0E6ED938A95E9F7E6E3F0E0859178
:10006C009591009761F0A591B59105901590BF0100
:10007C00F00105900D920197E1F7FB01F0CFE0E064
:10008C00E3BBE4BBE5BBEFEDEDBFC0E8C9C012D2EA
:10009C0000E010E0EA81FB810E171F075CF40F5F94
:1000AC001F4FD89880E18A95F1F7D89A83E38A9507
:1000BC00F1F7F0CF80EB94E00197F1F7FED12496A5
:1000CC000895E0E6F0E0FA93EA93E1DFE0E3F0E094
:1000DC00FA93EA93DCDFE8E1F0E0FA93EA93D7DFF6
:1000EC00E0E3F0E0FA93EA93D2DFE0E3F0E0FA9396
:1000FC00EA93CDDFE8E1F0E0FA93EA93C8DFE0E3BE
:10010C00F0E0FA93EA93C3DFE8E1F0E085C0E0E6C3
:10011C00F0E0FA93EA93BBDFE0E3F0E0FA93EA93C2
:10012C00B6DFE0E3F0E0FA93EA93B1DFE0E3F0E06E
:10013C00FA93EA93ACDFE8E1F0E0FA93EA93A7DFF5
:10014C00E0E3F0E0FA93EA93A2DFE0E3F0E0FA9365
:10015C00EA939DDFE8E1F0E05FC0E0E6F0E0FA93BF
:10016C00EA9395DFE8E1F0E0FA93EA9390DFE8E1B7
:10017C00F0E0FA93EA938BDFE8E1F0E0FA93EA938C
:10018C0086DFE0E3F0E0FA93EA9381DFE8E1F0E068
:10019C00FA93EA937CDFE8E1F0E039C0E8E1F0E0C3
:1001AC00FA93EA9374DFE0E3F0E0FA93EA936FDFFB
:1001BC00E8E1F0E0FA93EA936ADFE0E3F0E0FA9327
:1001CC00EA9365DFE0E3F0E0FA93EA9360DFE0E3C3
:1001DC00F0E0FA93EA935BDFE8E1F0E0FA93EA935C
:1001EC0056DFE8E1F0E0FA93EA9351DFE8E1F0E062
:1001FC00FA93EA934CDFE0E3F0E0FA93EA9347DFFB
:10020C00E0E3F0E0FA93EA9342DFE0E3F0E0FA9304
:10021C00EA933DDFE0E3F0E0FA93EA9338DF0895E8
:10022C00E0E8E6BDE0E0E6BDE1E0EABBE3E0EBBB25
:10023C00E0E0E7BBEFEFE8BBE0E0E1BBEFEFE2BBF8
:10024C00E4E6F0E0FA93EA93EAD0809903C0E8EE92
:10025C00F3E02F01819903C0E0E6FAEE2F018299B9
:10026C0003C0E0E8FEEE2F01839903C0E0E0FCE55B
:10027C002F01B09903C0F10131961F01B19903C050
:10028C00F10132961F01B29903C0F10133961F019F
:10029C00B39903C0F10134961F01B49903C0F10165
:1002AC0035961F01B59903C0F1013A961F01B69915
:1002BC0003C0F10174961F01B79903C0F1017E963A
:1002CC001F01F101D201CBD03F01849906C0D201AC
:1002DC00E4E0F0E0DCD06E0E7F1E859906C0D20102
:1002EC00E2E0F0E0D4D06E0E7F1EC99903C0E2E0CC
:1002FC00F0E05F01869903C0E3E0F0E05F01C9998B
:10030C0002C0869B01C003C0E4E0F0E05F01E4E6BC
:10031C00F0E06E167F0614F06E1A7F0A082C09287E
:10032C0051F0E4E0F0E0EA15FB0529F0E8ECF0E030
:10033C006E167F060CF404C0E8ECF0E06E1A7F0A2F
:10034C00F501E130A0E0FA0789F4BBDE27DFEBE032
:10035C00F0E0FA93EA9363D0B4DE20DFE4E1F0E05E
:10036C0060E070E0FA93EA935AD03FC0E230A0E02C
:10037C00FA0789F4CCDE12DFEBE0F0E0FA93EA93B3
:10038C004ED0C5DE0BDFE3E1F0E060E070E0FA9305
:10039C00EA9345D02AC0E330A0E0FA0779F4DDDE19
:1003AC00FDDEEBE0F0E0FA93EA9339D0D6DEF6DE30
:1003BC00E7E1F0E0FA93EA9332D017C0E430A0E022
:1003CC00FA0799F47A926A922AD07BDEE7DEEBE0A8
:1003DC00F0E0FA93EA9323D074DEE0DEE4E1F0E09F
:1003EC0060E070E0FA93EA931AD0082C092839F0EF
:1003FC00D898E8ECF0E0FA93EA9311D0D89AE4E0BC
:10040C00F0E0EA15FB0519F0062C072809F404C0E6
:10041C007A926A9204D001C001C092CFFFCFE991C9
:10042C00F991309639F080ED97E00197F1F7A895A6
:10043C003197C9F70895F195E195F04008950A2E8A
:10044C001B2E81E1AA27BB1B05C010F4A00DB11D0A
:10045C00B695A795F795E7958A95B9F708951CD0A9
:10046C00EEDF0EF4E8DF08950024112490E1AA0FCA
:10047C00BB1F001C111C0E1A1F0A18F40E0E1F1E97
:10048C0001C0A1609A9599F7FD01D001089504D09F
:10049C00EBDF0EF4D0DF0895E894F7FF02C0CBDF5A
:1004AC006894B7FF06C0A095B095119600F8039418
:1004BC0000FA08951A930A930895198108810895F2
:00000001FF
