:060000002EC0FECFFDCF73
:10000600FCCFFBCFFACFF9CFF8CFF7CFF6CFF5CFAE
:10001600F4CFF3CFF2CFF1CFF0CFEFCFEECFEDCFDE
:100026001027E80364000A00010000100001100018
:10003600010018003000010001000000000000006F
:10004600010001002D4E414E00000A0002003E0054
:100056000100880048000000F894EE27ECBBE5BFDD
:10006600F8E1A4B7A77FA4BFF1BDE1BD8DE0A2E092
:10007600ED938A95E9F780E8A0E6ED938A95E9F78E
:10008600E0E5F0E085919591009761F0A591B59135
:1000960005901590BF01F00105900D920197E1F7CB
:1000A600FB01F0CFE0E0E3BBE4BBE5BBEFEDEDBF6A
:1000B600C0E87DC077D300E010E0EA81FB810E172F
:1000C6001F075CF40F5F1F4FD89880E18A95F1F700
:1000D600D89A83E38A95F1F7F0CF80EB94E0019705
:1000E600F1F763D324960895E0E3F0E0FA93EA93F8
:1000F600E1DFE8E1F0E0FA93EA93DCDFE0E3F0E049
:10010600FA93EA93D7DFE0E3F0E0FA93EA93D2DFDB
:10011600E8E1F0E0FA93EA93CDDFE0E3F0E0FA936A
:10012600EA93C8DFE8E1F0E03EC0E8E1F0E0FA93E8
:10013600EA93C0DFE0E3F0E0FA93EA93BBDFE8E19D
:10014600F0E0FA93EA93B6DFE0E3F0E0FA93EA939D
:10015600B1DFE0E3F0E0FA93EA93ACDFE0E3F0E04E
:10016600FA93EA93A7DFE8E1F0E0FA93EA93A2DFD5
:10017600E8E1F0E0FA93EA939DDFE8E1F0E0FA9334
:10018600EA9398DFE0E3F0E0FA93EA9393DFE0E3A3
:10019600F0E0FA93EA938EDFE0E3F0E0FA93EA9375
:1001A60089DFE0E3F0E0FA93EA9384DF0895E0E87C
:1001B600E6BDE0E0E6BDE1E0EABBE3E0EBBBD89AF2
:1001C600E0E0E7BBEFEFE8BBE0E0E1BBEFEFE2BB6F
:1001D600E8ECF0E0FA93EA93AAD1E0E0C999E1E00D
:1001E600F0E0E0E0B099E1E0F0E03097A9F4E091CA
:1001F6008000F09181006091820070918300A0E000
:10020600B0E080E89FE33FD2E0938000F093810066
:100216006093820070938300E0E0B199E1E0F0E042
:100226003097A9F4E0918000F091810060918200FE
:1002360070918300A0E0B0E080E090E424D2E093E7
:100246008000F09381006093820070938300E0E069
:10025600B299E1E0F0E03097A9F4E0918000F091E6
:1002660081006091820070918300A0E0B0E080E49C
:1002760090E409D2E0938000F093810060938200BD
:1002860070938300E0E0B399E1E0F0E03097A9F4E1
:10029600E0918000F091810060918200709183006E
:1002A600A0E0B0E080E890E4EED1E0938000F09327
:1002B60081006093820070938300E0E0B499E1E0EE
:1002C600F0E03097A9F4E0918000F0918100609110
:1002D600820070918300A0E0B0E080EA90E4D3D180
:1002E600E0938000F0938100609382007093830016
:1002F600E0E0B599E1E0F0E03097A9F4E091800004
:10030600F09181006091820070918300A0E0B0E0DE
:1003160080E291E4B8D1E0938000F093810060938D
:10032600820070938300E0E0B699E1E0F0E0309758
:10033600A9F4E0918000F0918100609182007091B3
:100346008300A0E0B0E080EA91E49DD1E0938000D4
:10035600F09381006093820070938300E0E0B79988
:10036600E1E0F0E03097A9F4E0918000F09181009F
:100376006091820070918300A0E0B0E080EF91E48C
:1003860082D1E0938000F0938100609382007093A5
:100396008300E0E08099E1E0F0E0309719F4E8EEC0
:1003A600F3E02F01E0E08199E1E0F0E0309719F405
:1003B600E0E6FAEE2F01E0E08299E1E0F0E0309726
:1003C60019F4E0E8FEEE2F01E0E08399E1E0F0E0C9
:1003D600309719F4E0E0FCE52F01E0E08499E1E0D4
:1003E600F0E03097A9F4E0918000F09181006091EF
:1003F600820070918300A0E0B0E080E89EE343D1E4
:10040600E0938000F09381006093820070938300F4
:10041600E0E08599E1E0F0E03097A9F4E091800012
:10042600F09181006091820070918300A0E0B0E0BD
:1004360080E09FE328D1E0938000F09381006093F1
:10044600820070938300E0E08699E1E0F0E0309767
:1004560019F4E1E0F0E04F010A2C0B28A9F0E09135
:100466008400F09185006091860070918700ADEC64
:10047600BCEC82E992E407D1E0938400F093850016
:100486006093860070938700082C0928A9F0E091F4
:100496008400F09185006091860070918700A0E04D
:1004A600B0E088E493E4EFD0E0938400F093850015
:1004B6006093860070938700F2016FD1AAD0A09155
:1004C6008000B091810080918200909183002BD1B1
:1004D600A0918400B091850080918600909187005C
:1004E600CBD060D03F01022C032801F10A2C0B2847
:1004F60049F0FADD1ADEEBE0F0E0FA93EA9317D062
:10050600F3DD13DE082C092839F0D898E8ECF0E082
:10051600FA93EA930CD0D89A062C072819F42224C9
:10052600332403C07A926A9202D0DDCFFFCFE991DD
:10053600F991309639F080ED97E00197F1F7A8959B
:100546003197C9F70895552342F4503811F4E0FF66
:1005560004C03196691F791F6BF050E8572711F4D4
:100566005F93CFC05F3F31F0660F000C57956795DC
:10057600752F08955F9300200AF0CFC0C8C050E8D9
:10058600192E1522880F991F9527550F879550E824
:10059600072E0522660F771F7527550F6795089555
:1005A600689401C0E8945F93F2DF703818F07F3FDB
:1005B60008F4A7C056E1571BAAF4519558300EF41B
:1005C600593030F0EFEFFFEF6FEF7FE777F91AC0A2
:1005D60077275523B9F0EE0FFF1F661F771F5A9531
:1005E600D1F710C07727583028F0EF2FF62F672F56
:1005F6005850F9CF552331F076956795F795E795DD
:100606005A95D1F700200AF4C0D05F9108956894F6
:1006160001C0E894309760407040B1F0002426F0A5
:10062600772312F40094B1D0172E7EE1112032F018
:100636007A95EE0FFF1F661F111CF9CFEF2FF62FCD
:10064600612D5F938ADF5F9108954F93AF01FD019E
:10065600DA01AB01BC01CA01402D012C142E4F91C9
:100666000895EA0FFB1F681F0895E095F0956095C1
:10067600EF5FFF4F6F4F08955F9381DF903871F101
:1006860050E8152604C05F937ADF903839F1703848
:1006960021F1572F591B2BF112F4D7DFFACF58311E
:1006A60018F0AA27BB278827583028F0AB2FB82F79
:1006B60088275850F9CF552329F08695B795A795E1
:1006C6005A95D9F7502D512572F0CBDF38F467953E
:1006D600F795E795739513F420C0B7DF3EDF5F917A
:1006E6000895D8F7FBCFEA1BFB0B680B51F010F40B
:1006F6000094BBDF662392F3EE0FFF1F661F7A9509
:10070600CBF7EE27FF27662777275F910895EFEF50
:10071600FFEF6FE77FEF5F910895EFEFFFEF6FE772
:100726007FE75F9108955F932ADF703851F3903821
:1007360041F301240894791F23F41CF300203AF3B3
:10074600ECCF3F934F93112433274427552798E145
:10075600330F441F551FEE1FFF1F661F30F43A0F5D
:100766004B1F581FE11DF11D611D9A9589F74F9189
:100776003F9166232AF0550FEE1FFF1F661F02C02A
:100786007395E3F2E0DE5F910895F09560957095BC
:10079600E195FF4F6F4F7F4F08956F2F660F660BE2
:1007A600762F08951A930A9308951981088108955A
:00000001FF
